{
  "contractName": "SupplyChain",
  "abi": [
    {
      "inputs": [],
      "payable": false,
      "stateMutability": "nonpayable",
      "type": "constructor"
    },
    {
      "constant": true,
      "inputs": [
        {
          "internalType": "uint256",
          "name": "",
          "type": "uint256"
        }
      ],
      "name": "DIS",
      "outputs": [
        {
          "internalType": "address",
          "name": "addr",
          "type": "address"
        },
        {
          "internalType": "uint256",
          "name": "id",
          "type": "uint256"
        },
        {
          "internalType": "string",
          "name": "name",
          "type": "string"
        },
        {
          "internalType": "string",
          "name": "place",
          "type": "string"
        }
      ],
      "payable": false,
      "stateMutability": "view",
      "type": "function"
    },
    {
      "constant": true,
      "inputs": [
        {
          "internalType": "uint256",
          "name": "",
          "type": "uint256"
        }
      ],
      "name": "MAN",
      "outputs": [
        {
          "internalType": "address",
          "name": "addr",
          "type": "address"
        },
        {
          "internalType": "uint256",
          "name": "id",
          "type": "uint256"
        },
        {
          "internalType": "string",
          "name": "name",
          "type": "string"
        },
        {
          "internalType": "string",
          "name": "place",
          "type": "string"
        }
      ],
      "payable": false,
      "stateMutability": "view",
      "type": "function"
    },
    {
      "constant": true,
      "inputs": [],
      "name": "Owner",
      "outputs": [
        {
          "internalType": "address",
          "name": "",
          "type": "address"
        }
      ],
      "payable": false,
      "stateMutability": "view",
      "type": "function"
    },
    {
      "constant": true,
      "inputs": [
        {
          "internalType": "uint256",
          "name": "",
          "type": "uint256"
        }
      ],
      "name": "ProductStock",
      "outputs": [
        {
          "internalType": "uint256",
          "name": "id",
          "type": "uint256"
        },
        {
          "internalType": "string",
          "name": "name",
          "type": "string"
        },
        {
          "internalType": "string",
          "name": "description",
          "type": "string"
        },
        {
          "internalType": "uint256",
          "name": "RMSid",
          "type": "uint256"
        },
        {
          "internalType": "uint256",
          "name": "MANid",
          "type": "uint256"
        },
        {
          "internalType": "uint256",
          "name": "DISid",
          "type": "uint256"
        },
        {
          "internalType": "uint256",
          "name": "RETid",
          "type": "uint256"
        },
        {
          "internalType": "enum SupplyChain.STAGE",
          "name": "stage",
          "type": "uint8"
        }
      ],
      "payable": false,
      "stateMutability": "view",
      "type": "function"
    },
    {
      "constant": true,
      "inputs": [
        {
          "internalType": "uint256",
          "name": "",
          "type": "uint256"
        }
      ],
      "name": "RET",
      "outputs": [
        {
          "internalType": "address",
          "name": "addr",
          "type": "address"
        },
        {
          "internalType": "uint256",
          "name": "id",
          "type": "uint256"
        },
        {
          "internalType": "string",
          "name": "name",
          "type": "string"
        },
        {
          "internalType": "string",
          "name": "place",
          "type": "string"
        }
      ],
      "payable": false,
      "stateMutability": "view",
      "type": "function"
    },
    {
      "constant": true,
      "inputs": [
        {
          "internalType": "uint256",
          "name": "",
          "type": "uint256"
        }
      ],
      "name": "RMS",
      "outputs": [
        {
          "internalType": "address",
          "name": "addr",
          "type": "address"
        },
        {
          "internalType": "uint256",
          "name": "id",
          "type": "uint256"
        },
        {
          "internalType": "string",
          "name": "name",
          "type": "string"
        },
        {
          "internalType": "string",
          "name": "place",
          "type": "string"
        }
      ],
      "payable": false,
      "stateMutability": "view",
      "type": "function"
    },
    {
      "constant": true,
      "inputs": [],
      "name": "disCtr",
      "outputs": [
        {
          "internalType": "uint256",
          "name": "",
          "type": "uint256"
        }
      ],
      "payable": false,
      "stateMutability": "view",
      "type": "function"
    },
    {
      "constant": true,
      "inputs": [],
      "name": "manCtr",
      "outputs": [
        {
          "internalType": "uint256",
          "name": "",
          "type": "uint256"
        }
      ],
      "payable": false,
      "stateMutability": "view",
      "type": "function"
    },
    {
      "constant": true,
      "inputs": [],
      "name": "productCtr",
      "outputs": [
        {
          "internalType": "uint256",
          "name": "",
          "type": "uint256"
        }
      ],
      "payable": false,
      "stateMutability": "view",
      "type": "function"
    },
    {
      "constant": true,
      "inputs": [],
      "name": "retCtr",
      "outputs": [
        {
          "internalType": "uint256",
          "name": "",
          "type": "uint256"
        }
      ],
      "payable": false,
      "stateMutability": "view",
      "type": "function"
    },
    {
      "constant": true,
      "inputs": [],
      "name": "rmsCtr",
      "outputs": [
        {
          "internalType": "uint256",
          "name": "",
          "type": "uint256"
        }
      ],
      "payable": false,
      "stateMutability": "view",
      "type": "function"
    },
    {
      "constant": true,
      "inputs": [
        {
          "internalType": "uint256",
          "name": "_productID",
          "type": "uint256"
        }
      ],
      "name": "showStage",
      "outputs": [
        {
          "internalType": "string",
          "name": "",
          "type": "string"
        }
      ],
      "payable": false,
      "stateMutability": "view",
      "type": "function"
    },
    {
      "constant": false,
      "inputs": [
        {
          "internalType": "address",
          "name": "_address",
          "type": "address"
        },
        {
          "internalType": "string",
          "name": "_name",
          "type": "string"
        },
        {
          "internalType": "string",
          "name": "_place",
          "type": "string"
        }
      ],
      "name": "addRMS",
      "outputs": [],
      "payable": false,
      "stateMutability": "nonpayable",
      "type": "function"
    },
    {
      "constant": false,
      "inputs": [
        {
          "internalType": "address",
          "name": "_address",
          "type": "address"
        },
        {
          "internalType": "string",
          "name": "_name",
          "type": "string"
        },
        {
          "internalType": "string",
          "name": "_place",
          "type": "string"
        }
      ],
      "name": "addManufacturer",
      "outputs": [],
      "payable": false,
      "stateMutability": "nonpayable",
      "type": "function"
    },
    {
      "constant": false,
      "inputs": [
        {
          "internalType": "address",
          "name": "_address",
          "type": "address"
        },
        {
          "internalType": "string",
          "name": "_name",
          "type": "string"
        },
        {
          "internalType": "string",
          "name": "_place",
          "type": "string"
        }
      ],
      "name": "addDistributor",
      "outputs": [],
      "payable": false,
      "stateMutability": "nonpayable",
      "type": "function"
    },
    {
      "constant": false,
      "inputs": [
        {
          "internalType": "address",
          "name": "_address",
          "type": "address"
        },
        {
          "internalType": "string",
          "name": "_name",
          "type": "string"
        },
        {
          "internalType": "string",
          "name": "_place",
          "type": "string"
        }
      ],
      "name": "addRetailer",
      "outputs": [],
      "payable": false,
      "stateMutability": "nonpayable",
      "type": "function"
    },
    {
      "constant": false,
      "inputs": [
        {
          "internalType": "uint256",
          "name": "_productID",
          "type": "uint256"
        }
      ],
      "name": "RMSsupply",
      "outputs": [],
      "payable": false,
      "stateMutability": "nonpayable",
      "type": "function"
    },
    {
      "constant": false,
      "inputs": [
        {
          "internalType": "uint256",
          "name": "_productID",
          "type": "uint256"
        }
      ],
      "name": "Manufacturing",
      "outputs": [],
      "payable": false,
      "stateMutability": "nonpayable",
      "type": "function"
    },
    {
      "constant": false,
      "inputs": [
        {
          "internalType": "uint256",
          "name": "_productID",
          "type": "uint256"
        }
      ],
      "name": "Distribute",
      "outputs": [],
      "payable": false,
      "stateMutability": "nonpayable",
      "type": "function"
    },
    {
      "constant": false,
      "inputs": [
        {
          "internalType": "uint256",
          "name": "_productID",
          "type": "uint256"
        }
      ],
      "name": "Retail",
      "outputs": [],
      "payable": false,
      "stateMutability": "nonpayable",
      "type": "function"
    },
    {
      "constant": false,
      "inputs": [
        {
          "internalType": "uint256",
          "name": "_productID",
          "type": "uint256"
        }
      ],
      "name": "sold",
      "outputs": [],
      "payable": false,
      "stateMutability": "nonpayable",
      "type": "function"
    },
    {
      "constant": false,
      "inputs": [
        {
          "internalType": "string",
          "name": "_name",
          "type": "string"
        },
        {
          "internalType": "string",
          "name": "_description",
          "type": "string"
        }
      ],
      "name": "addProduct",
      "outputs": [],
      "payable": false,
      "stateMutability": "nonpayable",
      "type": "function"
    },
    {
      "constant": true,
      "inputs": [
        {
          "internalType": "uint256",
          "name": "_productCounter",
          "type": "uint256"
        }
      ],
      "name": "getProductData",
      "outputs": [
        {
          "internalType": "uint256",
          "name": "id",
          "type": "uint256"
        },
        {
          "internalType": "string",
          "name": "name",
          "type": "string"
        },
        {
          "internalType": "string",
          "name": "description",
          "type": "string"
        },
        {
          "internalType": "uint256",
          "name": "RMSid",
          "type": "uint256"
        },
        {
          "internalType": "uint256",
          "name": "MANid",
          "type": "uint256"
        },
        {
          "internalType": "uint256",
          "name": "DISid",
          "type": "uint256"
        },
        {
          "internalType": "uint256",
          "name": "RETid",
          "type": "uint256"
        },
        {
          "internalType": "string",
          "name": "stage",
          "type": "string"
        }
      ],
      "payable": false,
      "stateMutability": "view",
      "type": "function"
    },
    {
      "constant": true,
      "inputs": [],
      "name": "getLatestProductCounter",
      "outputs": [
        {
          "internalType": "uint256",
          "name": "",
          "type": "uint256"
        }
      ],
      "payable": false,
      "stateMutability": "view",
      "type": "function"
    }
  ],
  "bytecode": "0x60806040526000600155600060025560006003556000600455600060055534801561002957600080fd5b50336000806101000a81548173ffffffffffffffffffffffffffffffffffffffff021916908373ffffffffffffffffffffffffffffffffffffffff1602179055506131ff806100796000396000f3fe608060405234801561001057600080fd5b50600436106101585760003560e01c806386c18275116100c3578063cc4030691161007c578063cc40306914610e04578063d6d0be9f14610f51578063dd286398146110f3578063e101a2e014611111578063e762f593146111b8578063eef5cb40146111d657610158565b806386c1827514610bc05780639c03facb14610bee578063a48d335a14610c1c578063aaea34aa14610c4a578063b4a99a4e14610c68578063ca2efb5514610cb257610158565b80634def474a116101155780634def474a146105f85780635573d8b21461062657806359bf286f146107715780636a992c9f146108be5780637e43d94d14610a30578063857ddb0414610a4e57610158565b80632a4af4401461015d5780632b0187ac146102cf5780632b70b08d1461041c5780632bdb2e6b1461058e5780633d753a1c146105ac578063438e9c4d146105da575b600080fd5b6102cd6004803603606081101561017357600080fd5b81019080803573ffffffffffffffffffffffffffffffffffffffff169060200190929190803590602001906401000000008111156101b057600080fd5b8201836020820111156101c257600080fd5b803590602001918460018302840111640100000000831117156101e457600080fd5b91908080601f016020809104026020016040519081016040528093929190818152602001838380828437600081840152601f19601f8201169050808301925050505050505091929192908035906020019064010000000081111561024757600080fd5b82018360208201111561025957600080fd5b8035906020019184600183028401116401000000008311171561027b57600080fd5b91908080601f016020809104026020016040519081016040528093929190818152602001838380828437600081840152601f19601f820116905080830192505050505050509192919290505050611323565b005b6102fb600480360360208110156102e557600080fd5b810190808035906020019092919050505061146f565b604051808573ffffffffffffffffffffffffffffffffffffffff1673ffffffffffffffffffffffffffffffffffffffff1681526020018481526020018060200180602001838103835285818151815260200191508051906020019080838360005b8381101561037757808201518184015260208101905061035c565b50505050905090810190601f1680156103a45780820380516001836020036101000a031916815260200191505b50838103825284818151815260200191508051906020019080838360005b838110156103dd5780820151818401526020810190506103c2565b50505050905090810190601f16801561040a5780820380516001836020036101000a031916815260200191505b50965050505050505060405180910390f35b61058c6004803603606081101561043257600080fd5b81019080803573ffffffffffffffffffffffffffffffffffffffff1690602001909291908035906020019064010000000081111561046f57600080fd5b82018360208201111561048157600080fd5b803590602001918460018302840111640100000000831117156104a357600080fd5b91908080601f016020809104026020016040519081016040528093929190818152602001838380828437600081840152601f19601f8201169050808301925050505050505091929192908035906020019064010000000081111561050657600080fd5b82018360208201111561051857600080fd5b8035906020019184600183028401116401000000008311171561053a57600080fd5b91908080601f016020809104026020016040519081016040528093929190818152602001838380828437600081840152601f19601f8201169050808301925050505050505091929192905050506115ef565b005b61059661173b565b6040518082815260200191505060405180910390f35b6105d8600480360360208110156105c257600080fd5b8101908080359060200190929190505050611741565b005b6105e2611813565b6040518082815260200191505060405180910390f35b6106246004803603602081101561060e57600080fd5b8101908080359060200190929190505050611819565b005b6106526004803603602081101561063c57600080fd5b81019080803590602001909291905050506118eb565b60405180898152602001806020018060200188815260200187815260200186815260200185815260200184600581111561068857fe5b60ff16815260200183810383528a818151815260200191508051906020019080838360005b838110156106c85780820151818401526020810190506106ad565b50505050905090810190601f1680156106f55780820380516001836020036101000a031916815260200191505b50838103825289818151815260200191508051906020019080838360005b8381101561072e578082015181840152602081019050610713565b50505050905090810190601f16801561075b5780820380516001836020036101000a031916815260200191505b509a505050505050505050505060405180910390f35b61079d6004803603602081101561078757600080fd5b8101908080359060200190929190505050611a70565b604051808573ffffffffffffffffffffffffffffffffffffffff1673ffffffffffffffffffffffffffffffffffffffff1681526020018481526020018060200180602001838103835285818151815260200191508051906020019080838360005b838110156108195780820151818401526020810190506107fe565b50505050905090810190601f1680156108465780820380516001836020036101000a031916815260200191505b50838103825284818151815260200191508051906020019080838360005b8381101561087f578082015181840152602081019050610864565b50505050905090810190601f1680156108ac5780820380516001836020036101000a031916815260200191505b50965050505050505060405180910390f35b610a2e600480360360608110156108d457600080fd5b81019080803573ffffffffffffffffffffffffffffffffffffffff1690602001909291908035906020019064010000000081111561091157600080fd5b82018360208201111561092357600080fd5b8035906020019184600183028401116401000000008311171561094557600080fd5b91908080601f016020809104026020016040519081016040528093929190818152602001838380828437600081840152601f19601f820116905080830192505050505050509192919290803590602001906401000000008111156109a857600080fd5b8201836020820111156109ba57600080fd5b803590602001918460018302840111640100000000831117156109dc57600080fd5b91908080601f016020809104026020016040519081016040528093929190818152602001838380828437600081840152601f19601f820116905080830192505050505050509192919290505050611bf0565b005b610a38611d3c565b6040518082815260200191505060405180910390f35b610bbe60048036036060811015610a6457600080fd5b81019080803573ffffffffffffffffffffffffffffffffffffffff16906020019092919080359060200190640100000000811115610aa157600080fd5b820183602082011115610ab357600080fd5b80359060200191846001830284011164010000000083111715610ad557600080fd5b91908080601f016020809104026020016040519081016040528093929190818152602001838380828437600081840152601f19601f82011690508083019250505050505050919291929080359060200190640100000000811115610b3857600080fd5b820183602082011115610b4a57600080fd5b80359060200191846001830284011164010000000083111715610b6c57600080fd5b91908080601f016020809104026020016040519081016040528093929190818152602001838380828437600081840152601f19601f820116905080830192505050505050509192919290505050611d42565b005b610bec60048036036020811015610bd657600080fd5b8101908080359060200190929190505050611e8e565b005b610c1a60048036036020811015610c0457600080fd5b8101908080359060200190929190505050611f60565b005b610c4860048036036020811015610c3257600080fd5b8101908080359060200190929190505050612039565b005b610c5261210b565b6040518082815260200191505060405180910390f35b610c70612111565b604051808273ffffffffffffffffffffffffffffffffffffffff1673ffffffffffffffffffffffffffffffffffffffff16815260200191505060405180910390f35b610e0260048036036040811015610cc857600080fd5b8101908080359060200190640100000000811115610ce557600080fd5b820183602082011115610cf757600080fd5b80359060200191846001830284011164010000000083111715610d1957600080fd5b91908080601f016020809104026020016040519081016040528093929190818152602001838380828437600081840152601f19601f82011690508083019250505050505050919291929080359060200190640100000000811115610d7c57600080fd5b820183602082011115610d8e57600080fd5b80359060200191846001830284011164010000000083111715610db057600080fd5b91908080601f016020809104026020016040519081016040528093929190818152602001838380828437600081840152601f19601f820116905080830192505050505050509192919290505050612136565b005b610e3060048036036020811015610e1a57600080fd5b81019080803590602001909291905050506122d7565b604051808573ffffffffffffffffffffffffffffffffffffffff1673ffffffffffffffffffffffffffffffffffffffff1681526020018481526020018060200180602001838103835285818151815260200191508051906020019080838360005b83811015610eac578082015181840152602081019050610e91565b50505050905090810190601f168015610ed95780820380516001836020036101000a031916815260200191505b50838103825284818151815260200191508051906020019080838360005b83811015610f12578082015181840152602081019050610ef7565b50505050905090810190601f168015610f3f5780820380516001836020036101000a031916815260200191505b50965050505050505060405180910390f35b610f7d60048036036020811015610f6757600080fd5b8101908080359060200190929190505050612457565b6040518089815260200180602001806020018881526020018781526020018681526020018581526020018060200184810384528b818151815260200191508051906020019080838360005b83811015610fe3578082015181840152602081019050610fc8565b50505050905090810190601f1680156110105780820380516001836020036101000a031916815260200191505b5084810383528a818151815260200191508051906020019080838360005b8381101561104957808201518184015260208101905061102e565b50505050905090810190601f1680156110765780820380516001836020036101000a031916815260200191505b50848103825285818151815260200191508051906020019080838360005b838110156110af578082015181840152602081019050611094565b50505050905090810190601f1680156110dc5780820380516001836020036101000a031916815260200191505b509b50505050505050505050505060405180910390f35b6110fb612931565b6040518082815260200191505060405180910390f35b61113d6004803603602081101561112757600080fd5b8101908080359060200190929190505050612937565b6040518080602001828103825283818151815260200191508051906020019080838360005b8381101561117d578082015181840152602081019050611162565b50505050905090810190601f1680156111aa5780820380516001836020036101000a031916815260200191505b509250505060405180910390f35b6111c0612c47565b6040518082815260200191505060405180910390f35b611202600480360360208110156111ec57600080fd5b8101908080359060200190929190505050612c51565b604051808573ffffffffffffffffffffffffffffffffffffffff1673ffffffffffffffffffffffffffffffffffffffff1681526020018481526020018060200180602001838103835285818151815260200191508051906020019080838360005b8381101561127e578082015181840152602081019050611263565b50505050905090810190601f1680156112ab5780820380516001836020036101000a031916815260200191505b50838103825284818151815260200191508051906020019080838360005b838110156112e45780820151818401526020810190506112c9565b50505050905090810190601f1680156113115780820380516001836020036101000a031916815260200191505b50965050505050505060405180910390f35b6000809054906101000a900473ffffffffffffffffffffffffffffffffffffffff1673ffffffffffffffffffffffffffffffffffffffff163373ffffffffffffffffffffffffffffffffffffffff161461137c57600080fd5b60046000815480929190600101919050555060405180608001604052808473ffffffffffffffffffffffffffffffffffffffff16815260200160045481526020018381526020018281525060096000600454815260200190815260200160002060008201518160000160006101000a81548173ffffffffffffffffffffffffffffffffffffffff021916908373ffffffffffffffffffffffffffffffffffffffff1602179055506020820151816001015560408201518160020190805190602001906114499291906130d5565b5060608201518160030190805190602001906114669291906130d5565b50905050505050565b60096020528060005260406000206000915090508060000160009054906101000a900473ffffffffffffffffffffffffffffffffffffffff1690806001015490806002018054600181600116156101000203166002900480601f0160208091040260200160405190810160405280929190818152602001828054600181600116156101000203166002900480156115475780601f1061151c57610100808354040283529160200191611547565b820191906000526020600020905b81548152906001019060200180831161152a57829003601f168201915b505050505090806003018054600181600116156101000203166002900480601f0160208091040260200160405190810160405280929190818152602001828054600181600116156101000203166002900480156115e55780601f106115ba576101008083540402835291602001916115e5565b820191906000526020600020905b8154815290600101906020018083116115c857829003601f168201915b5050505050905084565b6000809054906101000a900473ffffffffffffffffffffffffffffffffffffffff1673ffffffffffffffffffffffffffffffffffffffff163373ffffffffffffffffffffffffffffffffffffffff161461164857600080fd5b60026000815480929190600101919050555060405180608001604052808473ffffffffffffffffffffffffffffffffffffffff16815260200160025481526020018381526020018281525060076000600254815260200190815260200160002060008201518160000160006101000a81548173ffffffffffffffffffffffffffffffffffffffff021916908373ffffffffffffffffffffffffffffffffffffffff1602179055506020820151816001015560408201518160020190805190602001906117159291906130d5565b5060608201518160030190805190602001906117329291906130d5565b50905050505050565b60045481565b60008111801561175357506001548111155b61175c57600080fd5b600061176733612dd1565b90506000811161177657600080fd5b6003600581111561178357fe5b6006600084815260200190815260200160002060070160009054906101000a900460ff1660058111156117b257fe5b146117bc57600080fd5b80600660008481526020019081526020016000206006018190555060046006600084815260200190815260200160002060070160006101000a81548160ff0219169083600581111561180a57fe5b02179055505050565b60035481565b60008111801561182b57506001548111155b61183457600080fd5b600061183f33612e92565b90506000811161184e57600080fd5b6002600581111561185b57fe5b6006600084815260200190815260200160002060070160009054906101000a900460ff16600581111561188a57fe5b1461189457600080fd5b80600660008481526020019081526020016000206005018190555060036006600084815260200190815260200160002060070160006101000a81548160ff021916908360058111156118e257fe5b02179055505050565b6006602052806000526040600020600091509050806000015490806001018054600181600116156101000203166002900480601f01602080910402602001604051908101604052809291908181526020018280546001816001161561010002031660029004801561199d5780601f106119725761010080835404028352916020019161199d565b820191906000526020600020905b81548152906001019060200180831161198057829003601f168201915b505050505090806002018054600181600116156101000203166002900480601f016020809104026020016040519081016040528092919081815260200182805460018160011615610100020316600290048015611a3b5780601f10611a1057610100808354040283529160200191611a3b565b820191906000526020600020905b815481529060010190602001808311611a1e57829003601f168201915b5050505050908060030154908060040154908060050154908060060154908060070160009054906101000a900460ff16905088565b600a6020528060005260406000206000915090508060000160009054906101000a900473ffffffffffffffffffffffffffffffffffffffff1690806001015490806002018054600181600116156101000203166002900480601f016020809104026020016040519081016040528092919081815260200182805460018160011615610100020316600290048015611b485780601f10611b1d57610100808354040283529160200191611b48565b820191906000526020600020905b815481529060010190602001808311611b2b57829003601f168201915b505050505090806003018054600181600116156101000203166002900480601f016020809104026020016040519081016040528092919081815260200182805460018160011615610100020316600290048015611be65780601f10611bbb57610100808354040283529160200191611be6565b820191906000526020600020905b815481529060010190602001808311611bc957829003601f168201915b5050505050905084565b6000809054906101000a900473ffffffffffffffffffffffffffffffffffffffff1673ffffffffffffffffffffffffffffffffffffffff163373ffffffffffffffffffffffffffffffffffffffff1614611c4957600080fd5b60036000815480929190600101919050555060405180608001604052808473ffffffffffffffffffffffffffffffffffffffff16815260200160035481526020018381526020018281525060086000600354815260200190815260200160002060008201518160000160006101000a81548173ffffffffffffffffffffffffffffffffffffffff021916908373ffffffffffffffffffffffffffffffffffffffff160217905550602082015181600101556040820151816002019080519060200190611d169291906130d5565b506060820151816003019080519060200190611d339291906130d5565b50905050505050565b60055481565b6000809054906101000a900473ffffffffffffffffffffffffffffffffffffffff1673ffffffffffffffffffffffffffffffffffffffff163373ffffffffffffffffffffffffffffffffffffffff1614611d9b57600080fd5b60056000815480929190600101919050555060405180608001604052808473ffffffffffffffffffffffffffffffffffffffff168152602001600554815260200183815260200182815250600a6000600554815260200190815260200160002060008201518160000160006101000a81548173ffffffffffffffffffffffffffffffffffffffff021916908373ffffffffffffffffffffffffffffffffffffffff160217905550602082015181600101556040820151816002019080519060200190611e689291906130d5565b506060820151816003019080519060200190611e859291906130d5565b50905050505050565b600081118015611ea057506001548111155b611ea957600080fd5b6000611eb433612f53565b905060008111611ec357600080fd5b60006005811115611ed057fe5b6006600084815260200190815260200160002060070160009054906101000a900460ff166005811115611eff57fe5b14611f0957600080fd5b80600660008481526020019081526020016000206003018190555060016006600084815260200190815260200160002060070160006101000a81548160ff02191690836005811115611f5757fe5b02179055505050565b600081118015611f7257506001548111155b611f7b57600080fd5b6000611f8633612dd1565b905060008111611f9557600080fd5b60066000838152602001908152602001600020600601548114611fb757600080fd5b60046005811115611fc457fe5b6006600084815260200190815260200160002060070160009054906101000a900460ff166005811115611ff357fe5b14611ffd57600080fd5b60056006600084815260200190815260200160002060070160006101000a81548160ff0219169083600581111561203057fe5b02179055505050565b60008111801561204b57506001548111155b61205457600080fd5b600061205f33613014565b90506000811161206e57600080fd5b6001600581111561207b57fe5b6006600084815260200190815260200160002060070160009054906101000a900460ff1660058111156120aa57fe5b146120b457600080fd5b80600660008481526020019081526020016000206004018190555060026006600084815260200190815260200160002060070160006101000a81548160ff0219169083600581111561210257fe5b02179055505050565b60015481565b6000809054906101000a900473ffffffffffffffffffffffffffffffffffffffff1681565b6000809054906101000a900473ffffffffffffffffffffffffffffffffffffffff1673ffffffffffffffffffffffffffffffffffffffff163373ffffffffffffffffffffffffffffffffffffffff161461218f57600080fd5b60006002541180156121a357506000600354115b80156121b157506000600454115b80156121bf57506000600554115b6121c857600080fd5b6001600081548092919060010191905055506040518061010001604052806001548152602001838152602001828152602001600081526020016000815260200160008152602001600081526020016000600581111561222357fe5b8152506006600060015481526020019081526020016000206000820151816000015560208201518160010190805190602001906122619291906130d5565b50604082015181600201908051906020019061227e9291906130d5565b50606082015181600301556080820151816004015560a0820151816005015560c0820151816006015560e08201518160070160006101000a81548160ff021916908360058111156122cb57fe5b02179055509050505050565b60086020528060005260406000206000915090508060000160009054906101000a900473ffffffffffffffffffffffffffffffffffffffff1690806001015490806002018054600181600116156101000203166002900480601f0160208091040260200160405190810160405280929190818152602001828054600181600116156101000203166002900480156123af5780601f10612384576101008083540402835291602001916123af565b820191906000526020600020905b81548152906001019060200180831161239257829003601f168201915b505050505090806003018054600181600116156101000203166002900480601f01602080910402602001604051908101604052809291908181526020018280546001816001161561010002031660029004801561244d5780601f106124225761010080835404028352916020019161244d565b820191906000526020600020905b81548152906001019060200180831161243057829003601f168201915b5050505050905084565b6000606080600080600080606060008911801561247657506001548911155b6124e8576040517f08c379a00000000000000000000000000000000000000000000000000000000081526004018080602001828103825260178152602001807f496e76616c69642070726f6475637420636f756e74657200000000000000000081525060200191505060405180910390fd5b6124f0613155565b600660008b81526020019081526020016000206040518061010001604052908160008201548152602001600182018054600181600116156101000203166002900480601f0160208091040260200160405190810160405280929190818152602001828054600181600116156101000203166002900480156125b25780601f10612587576101008083540402835291602001916125b2565b820191906000526020600020905b81548152906001019060200180831161259557829003601f168201915b50505050508152602001600282018054600181600116156101000203166002900480601f0160208091040260200160405190810160405280929190818152602001828054600181600116156101000203166002900480156126545780601f1061262957610100808354040283529160200191612654565b820191906000526020600020905b81548152906001019060200180831161263757829003601f168201915b50505050508152602001600382015481526020016004820154815260200160058201548152602001600682015481526020016007820160009054906101000a900460ff1660058111156126a357fe5b60058111156126ae57fe5b81525050905080600001519850806020015197508060400151965080606001519550806080015194508060a0015193508060c001519250600060058111156126f257fe5b8160e00151600581111561270257fe5b1415612745576040518060400160405280600f81526020017f50726f64756374204f72646572656400000000000000000000000000000000008152509150612925565b6001600581111561275257fe5b8160e00151600581111561276257fe5b14156127a5576040518060400160405280601981526020017f526177204d6174657269616c20537570706c79205374616765000000000000008152509150612924565b600260058111156127b257fe5b8160e0015160058111156127c257fe5b1415612805576040518060400160405280601381526020017f4d616e75666163747572696e67205374616765000000000000000000000000008152509150612923565b6003600581111561281257fe5b8160e00151600581111561282257fe5b1415612865576040518060400160405280601281526020017f446973747269627574696f6e20537461676500000000000000000000000000008152509150612922565b6004600581111561287257fe5b8160e00151600581111561288257fe5b14156128c5576040518060400160405280600c81526020017f52657461696c20537461676500000000000000000000000000000000000000008152509150612921565b6005808111156128d157fe5b8160e0015160058111156128e157fe5b1415612920576040518060400160405280600c81526020017f50726f6475637420536f6c64000000000000000000000000000000000000000081525091505b5b5b5b5b5b50919395975091939597565b60025481565b606060006001541161294857600080fd5b6000600581111561295557fe5b6006600084815260200190815260200160002060070160009054906101000a900460ff16600581111561298457fe5b14156129c7576040518060400160405280600f81526020017f50726f64756374204f72646572656400000000000000000000000000000000008152509050612c42565b600160058111156129d457fe5b6006600084815260200190815260200160002060070160009054906101000a900460ff166005811115612a0357fe5b1415612a46576040518060400160405280601981526020017f526177204d6174657269616c20537570706c79205374616765000000000000008152509050612c42565b60026005811115612a5357fe5b6006600084815260200190815260200160002060070160009054906101000a900460ff166005811115612a8257fe5b1415612ac5576040518060400160405280601381526020017f4d616e75666163747572696e67205374616765000000000000000000000000008152509050612c42565b60036005811115612ad257fe5b6006600084815260200190815260200160002060070160009054906101000a900460ff166005811115612b0157fe5b1415612b44576040518060400160405280601281526020017f446973747269627574696f6e20537461676500000000000000000000000000008152509050612c42565b60046005811115612b5157fe5b6006600084815260200190815260200160002060070160009054906101000a900460ff166005811115612b8057fe5b1415612bc3576040518060400160405280600c81526020017f52657461696c20537461676500000000000000000000000000000000000000008152509050612c42565b600580811115612bcf57fe5b6006600084815260200190815260200160002060070160009054906101000a900460ff166005811115612bfe57fe5b1415612c41576040518060400160405280600c81526020017f50726f6475637420536f6c6400000000000000000000000000000000000000008152509050612c42565b5b919050565b6000600154905090565b60076020528060005260406000206000915090508060000160009054906101000a900473ffffffffffffffffffffffffffffffffffffffff1690806001015490806002018054600181600116156101000203166002900480601f016020809104026020016040519081016040528092919081815260200182805460018160011615610100020316600290048015612d295780601f10612cfe57610100808354040283529160200191612d29565b820191906000526020600020905b815481529060010190602001808311612d0c57829003601f168201915b505050505090806003018054600181600116156101000203166002900480601f016020809104026020016040519081016040528092919081815260200182805460018160011615610100020316600290048015612dc75780601f10612d9c57610100808354040283529160200191612dc7565b820191906000526020600020905b815481529060010190602001808311612daa57829003601f168201915b5050505050905084565b60008060055411612de157600080fd5b6000600190505b6005548111612e87578273ffffffffffffffffffffffffffffffffffffffff16600a600083815260200190815260200160002060000160009054906101000a900473ffffffffffffffffffffffffffffffffffffffff1673ffffffffffffffffffffffffffffffffffffffff161415612e7a57600a600082815260200190815260200160002060010154915050612e8d565b8080600101915050612de8565b50600090505b919050565b60008060045411612ea257600080fd5b6000600190505b6004548111612f48578273ffffffffffffffffffffffffffffffffffffffff166009600083815260200190815260200160002060000160009054906101000a900473ffffffffffffffffffffffffffffffffffffffff1673ffffffffffffffffffffffffffffffffffffffff161415612f3b576009600082815260200190815260200160002060010154915050612f4e565b8080600101915050612ea9565b50600090505b919050565b60008060025411612f6357600080fd5b6000600190505b6002548111613009578273ffffffffffffffffffffffffffffffffffffffff166007600083815260200190815260200160002060000160009054906101000a900473ffffffffffffffffffffffffffffffffffffffff1673ffffffffffffffffffffffffffffffffffffffff161415612ffc57600760008281526020019081526020016000206001015491505061300f565b8080600101915050612f6a565b50600090505b919050565b6000806003541161302457600080fd5b6000600190505b60035481116130ca578273ffffffffffffffffffffffffffffffffffffffff166008600083815260200190815260200160002060000160009054906101000a900473ffffffffffffffffffffffffffffffffffffffff1673ffffffffffffffffffffffffffffffffffffffff1614156130bd5760086000828152602001908152602001600020600101549150506130d0565b808060010191505061302b565b50600090505b919050565b828054600181600116156101000203166002900490600052602060002090601f016020900481019282601f1061311657805160ff1916838001178555613144565b82800160010185558215613144579182015b82811115613143578251825591602001919060010190613128565b5b50905061315191906131a5565b5090565b604051806101000160405280600081526020016060815260200160608152602001600081526020016000815260200160008152602001600081526020016000600581111561319f57fe5b81525090565b6131c791905b808211156131c35760008160009055506001016131ab565b5090565b9056fea265627a7a723158207599fbb1b201ec68924e6bd660028c8b6575512200903361ec6bddac14fd2b8264736f6c63430005100032",
  "source": "pragma solidity >=0.4.22 <0.9.0;\n\ncontract SupplyChain {\n    address public Owner;\n\n    constructor() public {\n        Owner = msg.sender;\n    }\n    modifier onlyByOwner() {\n        require(msg.sender == Owner);\n        _;\n    }\n\n    enum STAGE {\n        Init,\n        RawMaterialSupply,\n        Manufacture,\n        Distribution,\n        Retail,\n        sold\n    }\n\n    uint256 public productCtr = 0;\n    uint256 public rmsCtr = 0;\n    uint256 public manCtr = 0;\n    uint256 public disCtr = 0;\n    uint256 public retCtr = 0;\n\n    //To store information about the product\n    struct product {\n        uint256 id;\n        string name;\n        string description; \n        uint256 RMSid; \n        uint256 MANid;\n        uint256 DISid;\n        uint256 RETid;\n        STAGE stage;\n    }\n    mapping(uint256 => product) public ProductStock;\n\n    //To show status to client applications\n    function showStage(uint256 _productID)\n        public\n        view\n        returns (string memory)\n    {\n        require(productCtr > 0);\n        if (ProductStock[_productID].stage == STAGE.Init)\n            return \"Product Ordered\";\n        else if (ProductStock[_productID].stage == STAGE.RawMaterialSupply)\n            return \"Raw Material Supply Stage\";\n        else if (ProductStock[_productID].stage == STAGE.Manufacture)\n            return \"Manufacturing Stage\";\n        else if (ProductStock[_productID].stage == STAGE.Distribution)\n            return \"Distribution Stage\";\n        else if (ProductStock[_productID].stage == STAGE.Retail)\n            return \"Retail Stage\";\n        else if (ProductStock[_productID].stage == STAGE.sold)\n            return \"Product Sold\";\n    }\n\n    struct rawMaterialSupplier {\n        address addr;\n        uint256 id;\n        string name;\n        string place;\n    }\n\n    mapping(uint256 => rawMaterialSupplier) public RMS;\n\n    //To store information about manufacturer\n    struct manufacturer {\n        address addr;\n        uint256 id; \n        string name; \n        string place;\n    }\n    mapping(uint256 => manufacturer) public MAN;\n\n    struct distributor {\n        address addr;\n        uint256 id; \n        string name; \n        string place;\n    }\n\n    mapping(uint256 => distributor) public DIS;\n    struct retailer {\n        address addr;\n        uint256 id;\n        string name;\n        string place;\n    }\n\n    mapping(uint256 => retailer) public RET;\n\n    function addRMS(\n        address _address,\n        string memory _name,\n        string memory _place\n    ) public onlyByOwner() {\n        rmsCtr++;\n        RMS[rmsCtr] = rawMaterialSupplier(_address, rmsCtr, _name, _place);\n    }\n\n    function addManufacturer(\n        address _address,\n        string memory _name,\n        string memory _place\n    ) public onlyByOwner() {\n        manCtr++;\n        MAN[manCtr] = manufacturer(_address, manCtr, _name, _place);\n    }\n\n    function addDistributor(\n        address _address,\n        string memory _name,\n        string memory _place\n    ) public onlyByOwner() {\n        disCtr++;\n        DIS[disCtr] = distributor(_address, disCtr, _name, _place);\n    }\n\n    function addRetailer(\n        address _address,\n        string memory _name,\n        string memory _place\n    ) public onlyByOwner() {\n        retCtr++;\n        RET[retCtr] = retailer(_address, retCtr, _name, _place);\n    }\n\n    function RMSsupply(uint256 _productID) public {\n        require(_productID > 0 && _productID <= productCtr);\n        uint256 _id = findRMS(msg.sender);\n        require(_id > 0);\n        require(ProductStock[_productID].stage == STAGE.Init);\n        ProductStock[_productID].RMSid = _id;\n        ProductStock[_productID].stage = STAGE.RawMaterialSupply;\n    }\n\n    function findRMS(address _address) private view returns (uint256) {\n        require(rmsCtr > 0);\n        for (uint256 i = 1; i <= rmsCtr; i++) {\n            if (RMS[i].addr == _address) return RMS[i].id;\n        }\n        return 0;\n    }\n\n    function Manufacturing(uint256 _productID) public {\n        require(_productID > 0 && _productID <= productCtr);\n        uint256 _id = findMAN(msg.sender);\n        require(_id > 0);\n        require(ProductStock[_productID].stage == STAGE.RawMaterialSupply);\n        ProductStock[_productID].MANid = _id;\n        ProductStock[_productID].stage = STAGE.Manufacture;\n    }\n\n    function findMAN(address _address) private view returns (uint256) {\n        require(manCtr > 0);\n        for (uint256 i = 1; i <= manCtr; i++) {\n            if (MAN[i].addr == _address) return MAN[i].id;\n        }\n        return 0;\n    }\n\n    function Distribute(uint256 _productID) public {\n        require(_productID > 0 && _productID <= productCtr);\n        uint256 _id = findDIS(msg.sender);\n        require(_id > 0);\n        require(ProductStock[_productID].stage == STAGE.Manufacture);\n        ProductStock[_productID].DISid = _id;\n        ProductStock[_productID].stage = STAGE.Distribution;\n    }\n\n    function findDIS(address _address) private view returns (uint256) {\n        require(disCtr > 0);\n        for (uint256 i = 1; i <= disCtr; i++) {\n            if (DIS[i].addr == _address) return DIS[i].id;\n        }\n        return 0;\n    }\n\n    function Retail(uint256 _productID) public {\n        require(_productID > 0 && _productID <= productCtr);\n        uint256 _id = findRET(msg.sender);\n        require(_id > 0);\n        require(ProductStock[_productID].stage == STAGE.Distribution);\n        ProductStock[_productID].RETid = _id;\n        ProductStock[_productID].stage = STAGE.Retail;\n    }\n\n    function findRET(address _address) private view returns (uint256) {\n        require(retCtr > 0);\n        for (uint256 i = 1; i <= retCtr; i++) {\n            if (RET[i].addr == _address) return RET[i].id;\n        }\n        return 0;\n    }\n    function sold(uint256 _productID) public {\n        require(_productID > 0 && _productID <= productCtr);\n        uint256 _id = findRET(msg.sender);\n        require(_id > 0);\n        require(_id == ProductStock[_productID].RETid); //Only correct retailer can mark product as sold\n        require(ProductStock[_productID].stage == STAGE.Retail);\n        ProductStock[_productID].stage = STAGE.sold;\n    }\n\n    function addProduct(string memory _name, string memory _description)\n        public\n        onlyByOwner()\n    {\n        require((rmsCtr > 0) && (manCtr > 0) && (disCtr > 0) && (retCtr > 0));\n        productCtr++;\n        ProductStock[productCtr] = product(\n            productCtr,\n            _name,\n            _description,\n            0,\n            0,\n            0,\n            0,\n            STAGE.Init\n        );\n    }\n\n    function getProductData(uint256 _productCounter) public view returns (\n        uint256 id,\n        string memory name,\n        string memory description,\n        uint256 RMSid,\n        uint256 MANid,\n        uint256 DISid,\n        uint256 RETid,\n        string memory stage\n    ) {\n        require(_productCounter > 0 && _productCounter <= productCtr, \"Invalid product counter\");\n        \n        product memory med = ProductStock[_productCounter];\n        \n        id = med.id;\n        name = med.name;\n        description = med.description;\n        RMSid = med.RMSid;\n        MANid = med.MANid;\n        DISid = med.DISid;\n        RETid = med.RETid;\n\n        if (med.stage == STAGE.Init)\n            stage = \"Product Ordered\";\n        else if (med.stage == STAGE.RawMaterialSupply)\n            stage = \"Raw Material Supply Stage\";\n        else if (med.stage == STAGE.Manufacture)\n            stage = \"Manufacturing Stage\";\n        else if (med.stage == STAGE.Distribution)\n            stage = \"Distribution Stage\";\n        else if (med.stage == STAGE.Retail)\n            stage = \"Retail Stage\";\n        else if (med.stage == STAGE.sold)\n            stage = \"Product Sold\";\n    }\n\n    function getLatestProductCounter() public view returns (uint256) {\n        return productCtr;\n    }\n}",
  "sourcePath": "/home/tharunbalaji/coding/hackathon-projects/technica-ldihackos/contracts/SupplyChain.sol",
  "compiler": {
    "name": "solc",
    "version": "0.5.16+commit.9c3226ce.Emscripten.clang"
  },
  "schemaVersion": "3.4.16",
  "updatedAt": "2024-03-15T16:22:52.516Z",
  "networkType": "ethereum",
  "devdoc": {
    "methods": {}
  },
  "userdoc": {
    "methods": {}
  }
}